[
  {
    "hash": "0000000000000000000454afddafd76d59adaa893558e94d3a7b112772a03103",
    "confirmations": 41,
    "height": 799900,
    "version": 853155840,
    "versionHex": "32da2000",
    "merkleroot": "c596de88850821bed6ebcb7b6a9bab92928c8c15cd2a8a4e9dbd4393299877cf",
    "time": 1690109288,
    "mediantime": 1690108135,
    "nonce": 2330682495,
    "bits": "17053894",
    "difficulty": 53911173001054.59,
    "chainwork": "00000000000000000000000000000000000000004fb5336ec2243210228cfd21",
    "nTx": 6139,
    "previousblockhash": "00000000000000000001c9077f47d109a586c9310aaab78dbcdfce0d263f82d2",
    "nextblockhash": "00000000000000000000432aa6fc397b79cbce2de649185f9cdf63a23582b63c",
    "strippedsize": 645845,
    "size": 2055667,
    "weight": 3993202,
    "tx": [
      {
        "txid": "400cd96be1659bdd43d81132716dc6c96d7a35d159c7099f493367bc678bd1a5",
        "hash": "f9ad36291d336b28b1f4dbdd1d390c1193f91f68996df87693532ce41a6c2b7a",
        "version": 1,
        "size": 310,
        "vsize": 283,
        "weight": 1132,
        "locktime": 0,
        "vin": [
          {
            "coinbase": "039c340c81002f42696e616e63652f313239fabe6d6d4d52cf9b93cc5aab5da38f5766711aa925de61c5453e392a297a38423c9362010100000000000000f501c3ffbd218f8ab01ffc45d2ef53088100767a7d42000000000000",
            "txinwitness": [
              "0000000000000000000000000000000000000000000000000000000000000000"
            ],
            "sequence": 4294967295
          }
        ],
        "vout": [
          {
            "value": 6.35137750,
            "n": 0,
            "scriptPubKey": {
              "asm": "OP_DUP OP_HASH160 fdb159cd21d2f3411b941ecca0cd70c51b3acc6f OP_EQUALVERIFY OP_CHECKSIG",
              "desc": "addr(1Q8QR5k32hexiMQnRgkJ6fmmjn5fMWhdv9)#eamgfwpx",
              "hex": "76a914fdb159cd21d2f3411b941ecca0cd70c51b3acc6f88ac",
              "address": "1Q8QR5k32hexiMQnRgkJ6fmmjn5fMWhdv9",
              "type": "pubkeyhash"
            }
          },
          {
            "value": 0.00000000,
            "n": 1,
            "scriptPubKey": {
              "asm": "OP_RETURN aa21a9ed9d62db9a662edf61586d24da5af4acb244e5d7e62a026b6d8e4123482738635d",
              "desc": "raw(6a24aa21a9ed9d62db9a662edf61586d24da5af4acb244e5d7e62a026b6d8e4123482738635d)#yag56xjj",
              "hex": "6a24aa21a9ed9d62db9a662edf61586d24da5af4acb244e5d7e62a026b6d8e4123482738635d",
              "type": "nulldata"
            }
          },
          {
            "value": 0.00000000,
            "n": 2,
            "scriptPubKey": {
              "asm": "OP_RETURN 52534b424c4f434b3a279874d126dbac4e143d8c12b52f8ce6c60ec3bdac688316d3c438240053d897",
              "desc": "raw(6a2952534b424c4f434b3a279874d126dbac4e143d8c12b52f8ce6c60ec3bdac688316d3c438240053d897)#g69ufwtr",
              "hex": "6a2952534b424c4f434b3a279874d126dbac4e143d8c12b52f8ce6c60ec3bdac688316d3c438240053d897",
              "type": "nulldata"
            }
          }
        ],
        "hex": "010000000001010000000000000000000000000000000000000000000000000000000000000000ffffffff5a039c340c81002f42696e616e63652f313239fabe6d6d4d52cf9b93cc5aab5da38f5766711aa925de61c5453e392a297a38423c9362010100000000000000f501c3ffbd218f8ab01ffc45d2ef53088100767a7d42000000000000ffffffff03d66edb25000000001976a914fdb159cd21d2f3411b941ecca0cd70c51b3acc6f88ac0000000000000000266a24aa21a9ed9d62db9a662edf61586d24da5af4acb244e5d7e62a026b6d8e4123482738635d00000000000000002b6a2952534b424c4f434b3a279874d126dbac4e143d8c12b52f8ce6c60ec3bdac688316d3c438240053d8970120000000000000000000000000000000000000000000000000000000000000000000000000"
      }
    ]
  },

  {
    "hash": "0000000000000000000454afddafd76d59adaa893558e94d3a7b112772a03103",
    "confirmations": 41,
    "height": 799900,
    "version": 853155840,
    "versionHex": "32da2000",
    "merkleroot": "c596de88850821bed6ebcb7b6a9bab92928c8c15cd2a8a4e9dbd4393299877cf",
    "time": 1690109288,
    "mediantime": 1690108135,
    "nonce": 2330682495,
    "bits": "17053894",
    "difficulty": 53911173001054.59,
    "chainwork": "00000000000000000000000000000000000000004fb5336ec2243210228cfd21",
    "nTx": 6139,
    "previousblockhash": "00000000000000000001c9077f47d109a586c9310aaab78dbcdfce0d263f82d2",
    "nextblockhash": "00000000000000000000432aa6fc397b79cbce2de649185f9cdf63a23582b63c",
    "strippedsize": 645845,
    "size": 2055667,
    "weight": 3993202,
    "tx": []
  }
]